S00F000032342D736166652E73726563E3
S11300000C942A000C9447000C9447000C9447006D
S11300100C9447000C9447000C9447000C94470040
S11300200C9447000C9447000C9447000C94470030
S11300300C9447000C9447000C9447000C94470020
S11300400C9447000C9447000C9447000C94470010
S11300500C94470011241FBECFE5D8E0DEBFCDBF0E
S113006010E0A0E6B0E0E2EAFAE002C005900D92EA
S1130070AE3EB107D9F720E0AEEEB0E001C01D926C
S1130080A23FB207E1F70E949B030C944F050C9426
S11300900000823419F118F4813439F0089583345E
S11300A0B1F1843409F44CC00895413059F42AB3B1
S11300B081E090E002C0880F991F6A95E2F7822BD5
S11300C08ABB08952AB381E090E002C0880F991F8B
S11300D06A95E2F7809582238ABB0895413059F4EA
S11300E027B381E090E002C0880F991F6A95E2F778
S11300F0822B87BB089527B381E090E002C0880F6C
S1130100991F6A95E2F78095822387BB0895413051
S113011059F424B381E090E002C0880F991F6A95D6
S1130120E2F7822B84BB089524B381E090E002C0FF
S1130130880F991F6A95E2F78095822384BB0895FE
S1130140413059F421B381E090E002C0880F991F37
S11301506A95E2F7822B81BB089521B381E090E098
S113016002C0880F991F6A95E2F78095822381BBAC
S11301700895823419F118F4813439F008958334E0
S1130180B1F1843409F44CC00895413059F42BB3CF
S113019081E090E002C0880F991F6A95E2F7822BF4
S11301A08BBB08952BB381E090E002C0880F991FA8
S11301B06A95E2F7809582238BBB0895413059F408
S11301C028B381E090E002C0880F991F6A95E2F796
S11301D0822B88BB089528B381E090E002C0880F89
S11301E0991F6A95E2F78095822388BB0895413070
S11301F059F425B381E090E002C0880F991F6A95F5
S1130200E2F7822B85BB089525B381E090E002C01C
S1130210880F991F6A95E2F78095822385BB08951C
S1130220413059F422B381E090E002C0880F991F55
S11302306A95E2F7822B82BB089522B381E090E0B5
S113024002C0880F991F6A95E2F78095822382BBCA
S113025008958234E9F018F4813431F055C08334C0
S113026059F18434E9F150C049B381E090E09C0134
S1130270062E02C0220F331F0A94E2F7842F90E067
S11302808223932302C0959587956A95E2F7089592
S113029046B381E090E09C01062E02C0220F331F7A
S11302A00A94E2F7842F90E08223932302C0959569
S11302B087956A95E2F7089543B381E090E09C0145
S11302C0062E02C0220F331F0A94E2F7842F90E017
S11302D08223932302C0959587956A95E2F7089542
S11302E040B381E090E09C01062E02C0220F331F30
S11302F00A94E2F7842F90E08223932302C0959519
S113030087956A95E2F7089580E00895823459F05C
S113031018F4813431F00895833439F0843439F099
S113032008956BBB089568BB089565BB089562BBCF
S11303300895823419F118F4813439F0089583341E
S1130340B1F1843409F44CC00895413059F42BB30D
S113035081E090E002C0880F991F6A95E2F7822B32
S11303608BBB08952BB381E090E002C0880F991FE6
S11303706A95E2F7809582238BBB0895413059F446
S113038028B381E090E002C0880F991F6A95E2F7D4
S1130390822B88BB089528B381E090E002C0880FC7
S11303A0991F6A95E2F78095822388BB08954130AE
S11303B059F425B381E090E002C0880F991F6A9533
S11303C0E2F7822B85BB089525B381E090E002C05B
S11303D0880F991F6A95E2F78095822385BB08955B
S11303E0413059F422B381E090E002C0880F991F94
S11303F06A95E2F7822B82BB089522B381E090E0F4
S113040002C0880F991F6A95E2F78095822382BB08
S113041008959FBB8EBB6DBB8CB384608CBB8CB3C7
S113042082608CBBE199FECF08959FBB8EBB8CB3D9
S113043081608CBB8DB3089541E060E084E40E9448
S1130440490041E061E084E40E94490041E062E047
S113045084E40E94490041E063E084E40E9449008E
S113046040E064E084E40E94490040E065E084E404
S11304700E94490040E066E084E40E94490040E0B4
S113048067E084E40E94490041E064E084E40E945F
S1130490990141E065E084E40E94990141E066E04D
S11304A084E40E94990141E067E084E40E94990198
S11304B00895EF92FF920F931F93CF93DF93CDB7DD
S11304C0DEB760970FB6F894DEBF0FBECDBF80E1F4
S11304D0E4E6F0E0DE01119601900D928A95E1F7D1
S11304E0EE24EA94F12C39C041E060E084E40E94F7
S11304F0B90041E061E084E40E94B90041E062E0B7
S113050084E40E94B90041E063E084E40E94B900FD
S113051040E06F2D84E40E94B90010E019C064E04B
S1130520610F84E40E942901082F811110C0EF2D6E
S1130530F0E0EE0FFF1FEE0FFF1F81E090E08C0F45
S11305409D1FE80FF91FE10FF11DE08003C01F5F3D
S1130550143028F3002321F0F39493E09F1520F640
S11305608E2D60960FB6F894DEBF0FBECDBFDF911F
S1130570CF911F910F91FF90EF90089541E060E0BB
S113058082E40E94B9008FE99FE00197F1F700C06F
S1130590000040E060E082E40E94B9008FE99FE03F
S11305A00197F1F700C000000895682F81E40E94CC
S11305B0860140E061E082E40E94B9000E94BE022C
S11305C08FEC97E00197F1F700C0000008952FEF3A
S11305D081EE94E0215080409040E1F700C000009B
S11305E041E060E081E40E94490041E061E081E48F
S11305F00E94490041E062E081E40E94490041E038
S113060063E081E40E94490041E064E081E40E94E7
S1130610490041E065E081E40E94490041E066E070
S113062081E40E94490041E067E081E40E944900BE
S113063041E060E082E40E94490041E062E082E43B
S11306400E94490041E061E082E40E94490040E0E8
S113065062E082E40E94B90088E30E94D5028FEC34
S113066097E00197F1F700C000008EE00E94D502E8
S11306708FEC97E00197F1F700C0000081E00E9441
S1130680D5028FE19EE40197F1F700C0000086E0F7
S11306900E94D5028FEC97E00197F1F700C00000AB
S11306A00895682F81E40E94860141E061E082E4BC
S11306B00E94B9000E94BE028FEC97E00197F1F707
S11306C000C000000895CF93DF93EC0103C00E94A3
S11306D05103219688818111FACFDF91CF9108953A
S11306E081E00E94D5028FE19EE40197F1F700C0FA
S11306F0000008959FEF980F923070F4613170F408
S1130700662371F0813019F42FE7260F0AC0823076
S113071041F42FEB260F05C020E803C020E801C0F8
S113072020E8822F0E94D5028FEC97E00197F1F721
S113073000C0000008950E94E7020E941C0280E2AB
S113074090E00E9415028F3FD1F50E94700384E768
S113075090E00E946303C0E0D0E029C00E945902E7
S1130760809361008F3FD1F30E9451032FEF84E304
S11307709CE0215080409040E1F700C000006C2FC5
S1130780655F81E00E947A038AE20E9451032FEFA1
S113079084E39CE0215080409040E1F700C00000D9
S11307A060916100CE0181960E9409022196C430B5
S11307B0D105A4F260E080E290E00E9409020E9468
S11307C070038FE790E00E94630361E082E00E947F
S11307D07A038CE890E00E9463030E94590280939C
S11307E060008F3FD1F32FEF82E597E021508040E6
S11307F09040E1F700C0000080916000823309F06E
S113080097C00E94700383E990E00E946303C0E0F4
S1130810D0E025C00E945902FE01E251FF4F8083BF
S11308208F3FC1F30E9451032FEF84E39CE02150DA
S113083080409040E1F700C000006C2F635F81E0CE
S11308400E947A038AE20E9451032FEF84E39CE022
S1130850215080409040E1F700C000002196C43050
S1130860D105C4F281E290E00E9415029091EE005D
S113087089134EC082E290E00E9415029091EF002D
S1130880891346C083E290E00E9415029091F00023
S113089089133EC084E290E00E9415029091F10019
S11308A0891336C00E94700384E790E00E946303BA
S11308B0C0E0D0E029C00E945902809362008F3FBB
S11308C0D1F30E9451032FEF84E39CE02150804038
S11308D09040E1F700C000006C2F655F81E00E944A
S11308E07A038AE20E9451032FEF84E39CE02150B3
S11308F080409040E1F700C0000060916200CE01AA
S113090081960E9409022196C430D105A4F257CFE2
S11309100E94700380EA90E00E9463032FEF83ED4E
S113092090E3215080409040E1F700C0000047CFA1
S1130930813309F044CF0E94700383E990E00E9460
S11309406303C0E0D0E025C00E945902FE01E251D9
S1130950FF4F80838F3FC1F30E9451032FEF84E345
S11309609CE0215080409040E1F700C000006C2FD3
S1130970635F81E00E947A038AE20E9451032FEFB1
S113098084E39CE0215080409040E1F700C00000E7
S11309902196C430D105C4F281E290E00E94150290
S11309A09091EE00891330C082E290E00E9415021B
S11309B09091EF00891328C083E290E00E94150211
S11309C09091F000891320C084E290E00E94150207
S11309D09091F100891318C00E9470038BEA90E093
S11309E00E94630361E082E00E947A038AEB90E054
S11309F00E9463032FEF87EA91E6215080409040E4
S1130A00E1F700C00000DBCE80916300882369F128
S1130A100E94700386EC90E00E9463032FEF83ED45
S1130A2090E3215080409040E1F700C000000E9414
S1130A30700385ED90E00E94630380916300815010
S1130A40809363006CE081E00E947A0380916300EC
S1130A50805D0E9451032FEF83ED90E3215080408D
S1130A609040E1F700C00000AACE8111A8CE0E94F8
S1130A70700386EC90E00E94630361E082E00E94D0
S1130A807A0381EE90E00E9463032FEF83ED90E3FD
S1130A90215080409040E1F700C0000090CEF894CF
S1050AA0FFCF82
S1130AA2FFFFFF033738392F3435362A3132332DDD
S1130AB241303D2B73657420706173733A200031A9
S1130AC22D636865636B207061737300322D6564F6
S1130AD2697400636865636B20706173733A200004
S1130AE277726F6E672070617373007269676874DE
S1130AF22070617373776F72640073616665206F2F
S1130B0270656E65640077726F6E672070617373CF
S1130B12776F7264007472696573206C6566743AE7
S1110B22007361666520636C6F736564000088
S9030000FC
